{
  "_format": "hh-sol-artifact-1",
  "contractName": "Greeter",
  "sourceName": "contracts/Greeter.sol",
  "abi": [
    {
      "inputs": [
        {
          "internalType": "string",
          "name": "_greeting",
          "type": "string"
        },
        {
          "internalType": "address payable",
          "name": "_owner",
          "type": "address"
        }
      ],
      "stateMutability": "nonpayable",
      "type": "constructor"
    },
    {
      "inputs": [],
      "name": "greet",
      "outputs": [
        {
          "internalType": "string",
          "name": "",
          "type": "string"
        }
      ],
      "stateMutability": "view",
      "type": "function"
    },
    {
      "inputs": [
        {
          "internalType": "string",
          "name": "_greeting",
          "type": "string"
        }
      ],
      "name": "setGreeting",
      "outputs": [],
      "stateMutability": "nonpayable",
      "type": "function"
    },
    {
      "inputs": [],
      "name": "transferMoney",
      "outputs": [],
      "stateMutability": "payable",
      "type": "function"
    }
  ],
  "bytecode": "0x60806040523480156200001157600080fd5b506040516200094c3803806200094c8339810160408190526200003491620001d6565b620000646040518060600160405280602281526020016200092a6022913983620000a160201b620002201760201c565b81516200007990600090602085019062000113565b50600180546001600160a01b0319166001600160a01b03929092169190911790555062000385565b620000ee8282604051602401620000ba929190620002cd565b60408051601f198184030181529190526020810180516001600160e01b03908116634b5c427760e01b17909152620000f216565b5050565b80516a636f6e736f6c652e6c6f67602083016000808483855afa5050505050565b828054620001219062000332565b90600052602060002090601f01602090048101928262000145576000855562000190565b82601f106200016057805160ff191683800117855562000190565b8280016001018555821562000190579182015b828111156200019057825182559160200191906001019062000173565b506200019e929150620001a2565b5090565b5b808211156200019e5760008155600101620001a3565b80516001600160a01b0381168114620001d157600080fd5b919050565b60008060408385031215620001e9578182fd5b82516001600160401b038082111562000200578384fd5b818501915085601f83011262000214578384fd5b8151818111156200022957620002296200036f565b604051601f8201601f19908116603f011681019083821181831017156200025457620002546200036f565b816040528281528860208487010111156200026d578687fd5b62000280836020830160208801620002ff565b80965050505050506200029660208401620001b9565b90509250929050565b60008151808452620002b9816020860160208601620002ff565b601f01601f19169290920160200192915050565b604081526000620002e260408301856200029f565b8281036020840152620002f681856200029f565b95945050505050565b60005b838110156200031c57818101518382015260200162000302565b838111156200032c576000848401525b50505050565b600181811c908216806200034757607f821691505b602082108114156200036957634e487b7160e01b600052602260045260246000fd5b50919050565b634e487b7160e01b600052604160045260246000fd5b61059580620003956000396000f3fe6080604052600436106100345760003560e01c80636cee6d7714610039578063a413686214610043578063cfae321714610063575b600080fd5b61004161008e565b005b34801561004f57600080fd5b5061004161005e36600461036b565b6100ca565b34801561006f57600080fd5b5061007861018e565b6040516100859190610460565b60405180910390f35b6001546040516001600160a01b03909116903480156108fc02916000818181858888f193505050501580156100c7573d6000803e3d6000fd5b50565b61017760405180606001604052806023815260200161053d60239139600080546100f3906104eb565b80601f016020809104026020016040519081016040528092919081815260200182805461011f906104eb565b801561016c5780601f106101415761010080835404028352916020019161016c565b820191906000526020600020905b81548152906001019060200180831161014f57829003601f168201915b505050505083610265565b805161018a9060009060208401906102d2565b5050565b60606000805461019d906104eb565b80601f01602080910402602001604051908101604052809291908181526020018280546101c9906104eb565b80156102165780601f106101eb57610100808354040283529160200191610216565b820191906000526020600020905b8154815290600101906020018083116101f957829003601f168201915b5050505050905090565b61018a828260405160240161023692919061047a565b60408051601f198184030181529190526020810180516001600160e01b0316634b5c427760e01b1790526102b1565b6102ac83838360405160240161027d939291906104a8565b60408051601f198184030181529190526020810180516001600160e01b0316632ced7cef60e01b1790526102b1565b505050565b80516a636f6e736f6c652e6c6f67602083016000808483855afa5050505050565b8280546102de906104eb565b90600052602060002090601f0160209004810192826103005760008555610346565b82601f1061031957805160ff1916838001178555610346565b82800160010185558215610346579182015b8281111561034657825182559160200191906001019061032b565b50610352929150610356565b5090565b5b808211156103525760008155600101610357565b60006020828403121561037c578081fd5b813567ffffffffffffffff80821115610393578283fd5b818401915084601f8301126103a6578283fd5b8135818111156103b8576103b8610526565b604051601f8201601f19908116603f011681019083821181831017156103e0576103e0610526565b816040528281528760208487010111156103f8578586fd5b826020860160208301379182016020019490945295945050505050565b60008151808452815b8181101561043a5760208185018101518683018201520161041e565b8181111561044b5782602083870101525b50601f01601f19169290920160200192915050565b6020815260006104736020830184610415565b9392505050565b60408152600061048d6040830185610415565b828103602084015261049f8185610415565b95945050505050565b6060815260006104bb6060830186610415565b82810360208401526104cd8186610415565b905082810360408401526104e18185610415565b9695505050505050565b600181811c908216806104ff57607f821691505b6020821081141561052057634e487b7160e01b600052602260045260246000fd5b50919050565b634e487b7160e01b600052604160045260246000fdfe4368616e67696e67206772656574696e672066726f6d202725732720746f2027257327a2646970667358221220e908e8eb9d85132cf2db75cc43873dd1b7d8dc426193ee2064244d4e1b8a796064736f6c634300080400334465706c6f79696e67206120477265657465722077697468206772656574696e673a",
  "linkReferences": {},
  "deployedLinkReferences": {}
}