{
  "_format": "hh-sol-artifact-1",
  "contractName": "Test",
  "sourceName": "contracts/Test.sol",
  "abi": [
    {
      "inputs": [
        {
          "internalType": "address",
          "name": "_owner",
          "type": "address"
        }
      ],
      "stateMutability": "nonpayable",
      "type": "constructor"
    },
    {
      "anonymous": false,
      "inputs": [
        {
          "indexed": false,
          "internalType": "address",
          "name": "caller",
          "type": "address"
        },
        {
          "indexed": false,
          "internalType": "string",
          "name": "message",
          "type": "string"
        }
      ],
      "name": "testEvent",
      "type": "event"
    },
    {
      "inputs": [],
      "name": "count",
      "outputs": [
        {
          "internalType": "int256",
          "name": "",
          "type": "int256"
        }
      ],
      "stateMutability": "view",
      "type": "function"
    },
    {
      "inputs": [],
      "name": "owner",
      "outputs": [
        {
          "internalType": "address",
          "name": "",
          "type": "address"
        }
      ],
      "stateMutability": "view",
      "type": "function"
    },
    {
      "inputs": [
        {
          "internalType": "string",
          "name": "_message",
          "type": "string"
        }
      ],
      "name": "setMessage",
      "outputs": [],
      "stateMutability": "nonpayable",
      "type": "function"
    },
    {
      "inputs": [
        {
          "internalType": "int256",
          "name": "",
          "type": "int256"
        }
      ],
      "name": "userMessage",
      "outputs": [
        {
          "internalType": "string",
          "name": "",
          "type": "string"
        }
      ],
      "stateMutability": "view",
      "type": "function"
    }
  ],
  "bytecode": "0x608060405234801561001057600080fd5b5060405161067f38038061067f83398101604081905261002f916100ea565b61005a60405180606001604052806024815260200161065b6024913961007f60201b6101db1760201c565b600080546001600160a01b0319166001600160a01b039290921691909117905561016b565b6100c6816040516024016100939190610118565b60408051601f198184030181529190526020810180516001600160e01b0390811663104c13eb60e21b179091526100c916565b50565b80516a636f6e736f6c652e6c6f67602083016000808483855afa5050505050565b6000602082840312156100fb578081fd5b81516001600160a01b0381168114610111578182fd5b9392505050565b6000602080835283518082850152825b8181101561014457858101830151858201604001528201610128565b818111156101555783604083870101525b50601f01601f1916929092016040019392505050565b6104e18061017a6000396000f3fe608060405234801561001057600080fd5b506004361061004c5760003560e01c806306661abd14610051578063368b87721461006d5780636af86a21146100825780638da5cb5b146100a2575b600080fd5b61005a60025481565b6040519081526020015b60405180910390f35b61008061007b3660046102f3565b6100cd565b005b6100956100903660046102db565b610141565b6040516100649190610414565b6000546100b5906001600160a01b031681565b6040516001600160a01b039091168152602001610064565b600254600090815260016020908152604090912082516100ef92840190610242565b506002805490600061010083610469565b91905055507f11549542d95ba63fb98c082b4c53c1e303cbfa12c4fd416b25491b703b01d45f33826040516101369291906103e8565b60405180910390a150565b6001602052600090815260409020805461015a9061042e565b80601f01602080910402602001604051908101604052809291908181526020018280546101869061042e565b80156101d35780601f106101a8576101008083540402835291602001916101d3565b820191906000526020600020905b8154815290600101906020018083116101b657829003601f168201915b505050505081565b61021e816040516024016101ef9190610414565b60408051601f198184030181529190526020810180516001600160e01b031663104c13eb60e21b179052610221565b50565b80516a636f6e736f6c652e6c6f67602083016000808483855afa5050505050565b82805461024e9061042e565b90600052602060002090601f01602090048101928261027057600085556102b6565b82601f1061028957805160ff19168380011785556102b6565b828001600101855582156102b6579182015b828111156102b657825182559160200191906001019061029b565b506102c29291506102c6565b5090565b5b808211156102c257600081556001016102c7565b6000602082840312156102ec578081fd5b5035919050565b600060208284031215610304578081fd5b813567ffffffffffffffff8082111561031b578283fd5b818401915084601f83011261032e578283fd5b81358181111561034057610340610495565b604051601f8201601f19908116603f0116810190838211818310171561036857610368610495565b81604052828152876020848701011115610380578586fd5b826020860160208301379182016020019490945295945050505050565b60008151808452815b818110156103c2576020818501810151868301820152016103a6565b818111156103d35782602083870101525b50601f01601f19169290920160200192915050565b6001600160a01b038316815260406020820181905260009061040c9083018461039d565b949350505050565b602081526000610427602083018461039d565b9392505050565b600181811c9082168061044257607f821691505b6020821081141561046357634e487b7160e01b600052602260045260246000fd5b50919050565b60006001600160ff1b0382141561048e57634e487b7160e01b81526011600452602481fd5b5060010190565b634e487b7160e01b600052604160045260246000fdfea2646970667358221220975607c023980f949e558f565b30f2fd0e364afc1468b5d6025f06759a66b3c864736f6c634300080400336465706c6f79696e67207465737420636f6e747261637420666f72207375626772617068",
  "linkReferences": {},
  "deployedLinkReferences": {}
}